:020000040000FA
:060000009CEF1BF0120052
:0600080004EF08F01200F5
:060018000CEF08F01200DD
:061000009CEF1BF0120042
:021006001200D6
:0610080053EF11F012008D
:02100E000000E0
:0110100000DF
:0610180099EF11F0120037
:02101E000100CF
:0C1020000E100000B800000003000000EB
:04102C00D9CFE6FF33
:10103000E1CFD9FFE652A0940F015F6B626A536B58
:10104000020EE66EE66AE66A540EE66E0F0EE66E75
:101050001FEC1BF0106E050EE15E1050160E616E57
:101060000F019F0E5B6F7B0E606EDF6ADF50106EAC
:10107000116A0C0E105C000E115810E2DF50040DC6
:10108000F3CFE9FFF4CFEAFF000EE926020EEA22D1
:10109000EE6AEE6AEE6AEE6ADF2AE8D7648C0F0128
:1010A0005C6B6498649C62A607D062960001786BC2
:1010B0007D6B7E6B7F6BF7D70001010E916F926F96
:1010C000936B946B856BDF6A030EDF5C26E2EA6A42
:1010D000DF34FE0BEA36E96E6E0EE926000EEA22D8
:1010E000EE6AED6AEA6ADF34FE0BEA36E96E680EF4
:1010F000E926000EEA22EE6AED6ADF50EA6A890FFD
:10110000E96E000EEA22EF6ADF50EA6A8C0FE96EA0
:10111000000EEA22EF6ADF2AD7D70001080E6E6FB1
:10112000020E6F6F0F01160E536F0201300E026F29
:10113000020E036F080E016F840E006F0001616BD9
:10114000606BE552E552E7CFD9FF1200D9CFE6FF39
:10115000E1CFD9FFE6520001605110E1646A606A94
:10116000160E616E0F019F0E5B6F7B0E606E64B694
:1011700002D06486FCD70001010E606F600508E1B3
:1011800064BA06D0626A606A60806088020E606F2E
:101190006250040B06E06050040B03E062948FEC95
:1011A0000EF064B259D06250010B08E06050010BA0
:1011B00005E03CDF0001040E606F62906250100B8E
:1011C00006E06050100B03E07AEC0EF0629862AC1F
:1011D00019D060AC0FD0010EE66EE66A000EE66E26
:1011E000E66A730EE66EE66A40EC16F0106E060EC6
:1011F000E15E1050629C00018F5101E08F078F511A
:1012000001E1E0D96250200B05E06050200B02E0C4
:1012100060EC0EF06250020B14E06050020B11E023
:10122000010EE66EE66A000EE66EE66AE6687F0E7E
:10123000E66E40EC16F0106E060EE15E10500F01E7
:101240005F6B040E0001E76E6019E8AE02D0E73470
:1012500002D0E750605D02E2A19439D060A636D09A
:10126000DF6A040EDF5C32E262A630D063CF86F024
:1012700000018651780BE842E842E842876F6296A7
:1012800086B506D08751EA6A8C0FE96E000E05D04C
:101290008751EA6A890FE96E000EEA22EF708751E2
:1012A00003E1A6EC0EF010D0000EE66EE66A860EA4
:1012B000E66E000EE66E720EE66EE66A40EC16F022
:1012C000106E060EE15E1050DF2ACBD7A194E552D6
:1012D000E552E7CFD9FF1200D9CFE6FFE1CFD9FF22
:1012E000020EE126FD0EDBA407D0E66AFE0EDBCF80
:1012F000E6FFF7D9E552E552FD0EDBA208D0010E5C
:10130000E66EFE0EDBCFE6FFECD9E552E552FE0EAF
:10131000DB50116A530F106E0F0E112210C0DEFF4A
:1013200011C0DDFFDECFE9FFDDCFEAFFFD0EDBCF31
:10133000EFFF020EE15C02E2E16AE552E16EE55286
:10134000E7CFD9FF1200D9CFE6FFE1CFD9FF020ED8
:10135000E126FD0EDB500AE0FE0EEA6ADB34FE0BEE
:10136000EA36E96E6E0EE926000E09D0FE0EEA6A34
:10137000DB34FE0BEA36E96E680EE926000EEA223F
:10138000EECFDEFFEDCFDDFFD9CFE9FFDACFEAFF09
:10139000EE50ED1003E1F36AF46A44D0DECFE9FFCA
:1013A000DDCFEAFF020EE926000EEA22FB0EDBCFBC
:1013B000EEFFFC0EDBCFEDFFDECFE9FFDDCFEAFF76
:1013C000EE52FA0EDBCFEFFF400EDECFE9FFDDCFAE
:1013D000EAFFE850EF16880EDECFE9FFDDCFEAFF27
:1013E000E850EF12FD0EDB500AE0FE0EEA6ADB3435
:1013F000FE0BEA36E96E6E0EE926000E09D0FE0EEF
:10140000EA6ADB34FE0BEA36E96E680EE926000E66
:10141000EA22EF74DECF10F0DDCF11F010C0F3FF41
:1014200011C0F4FF020EE15C02E2E16AE552E16EF6
:10143000E552E7CFD9FF1200D9CFE6FFE1CFD9FFC0
:10144000020EE126FE0EDB5020E166C0E9FF67C018
:10145000EAFFEE52080EEF6E66C0E9FF67C0EAFFD2
:10146000020EE926000EEA22300EEE6E020EED6E3E
:1014700066C0E9FF67C0EAFF8C0EEF6E6EC0E9FF41
:101480006FC0EAFF840EEF6E3BD0FD0EDB50E82408
:10149000126EFE0EDB50040DF3501224040DF3CF38
:1014A00010F0F4CF11F0000E1026020E112210C021
:1014B000DEFF11C0DDFF840EDECFE9FFDDCFEAFFE6
:1014C000E850EF12FD0EDB50E824126EFE0EDB50EA
:1014D000040DF3501224010F040DF3CF10F0F4CFDC
:1014E00011F0000E1026020E112210C0DEFF11C0F6
:1014F000DDFF840EDECFE9FFDDCFEAFFE850EF121B
:10150000020EE15C02E2E16AE552E16EE552E7CFEC
:10151000D9FF1200D9CFE6FFE1CFD9FF64A84ED0A2
:10152000FE0EEA6ADB34FE0BEA36E96E6E0EE92641
:10153000000EEA22EE50EFCFEAFFE96E400EEE1603
:10154000EE6AEE6AEE6AFE0EEA6ADB34FE0BEA36FB
:10155000E96E6E0EE926000EEA22EE50EFCFEAFFAA
:10156000E96EEE7CFE0EEA6ADB34FE0BEA36E96ECB
:101570006E0EE926000EEA22EF74400E106EFE0E8B
:10158000EA6ADB34FE0BEA36E96E6E0EE926000EDF
:10159000EA22EE50EFCFEAFFE96E1050EF16FE0E92
:1015A000EA6ADB34FE0BEA36E96E6E0EE926000EBF
:1015B000EA22EE50EFCFEAFFE96EEF7CE552E7CF8B
:1015C000D9FF1200000191514DE1010E916F92512E
:1015D00049E1010E926F020E755D0DE16EC0E9FFEB
:1015E0006FC0EAFFEE52EF6A6EC0E9FF6FC0EAFF1C
:1015F000C80EEF6E1200750535E1886B64C0E9FF17
:1016000065C0EAFFEE52080EEF6E64C0E9FF65C0E8
:10161000EAFF020EE926000EEA22300EEE6E020EFE
:10162000ED6E64C0E9FF65C0EAFF840EEF6E010E47
:10163000886F66C0E9FF67C0EAFFEE52080EEF6EE2
:1016400066C0E9FF67C0EAFF020EE926000EEA2243
:10165000300EEE6E020EED6E66C0E9FF67C0EAFF67
:10166000800EEF6E12000001936B946B020E755D9D
:1016700018E166C0E9FF67C0EAFFEE52080EEF6EA0
:1016800066C0E9FF67C0EAFF020EE926000EEA2203
:10169000380EEE6E020EED6E66C0E9FF67C0EAFF1F
:1016A0001DD079510201365D00017A51020137598E
:1016B00004E236C279F037C27AF0CAD86EC0E9FFC8
:1016C0006FC0EAFF020EE926000EEA22380EEE6E27
:1016D000020EED6E6EC0E9FF6FC0EAFFC80EEF6E3E
:1016E0001200D9CFE6FFE1CFD9FF020EE126000EAE
:1016F000DE6E020EDD6EFD0EDB50E824126EFE0E75
:10170000DB50040DF3501224040DF4CF11F0D9CFA7
:10171000E9FFDACFEAFFF350EE261150ED22DECFDB
:10172000E9FFDDCFEAFFEF9EFD0EDB500AE1FE0E82
:10173000EA6ADB34FE0BEA36E96E680EE926000E33
:1017400009D0FE0EEA6ADB34FE0BEA36E96E6E0E55
:10175000E926000EEA22DECFEEFFDDCFEDFFDECF81
:10176000E9FFDDCFEAFFEF9CDECFE9FFDDCFEAFF47
:10177000040EE926000EEA22EF8C020EE15C02E282
:10178000E16AE552E16EE552E7CFD9FF12006498B5
:10179000000178BF2BD07DAF09D0020E756F945138
:1017A00001E161DF0001926B916B120066C0E9FFFD
:1017B00067C0EAFFEE52080EEF6E66C0E9FF67C031
:1017C000EAFF020EE926000EEA22300EEE6E020E4D
:1017D000ED6E66C0E9FF67C0EAFF8C0EEF6E6EC06B
:1017E000E9FF6FC0EAFF840EEF6E1200020130AF16
:1017F0000DD00001010E756F935101E134DF00013E
:10180000926B916B905123E1E2EF0AF00001020E1E
:10181000756F66C0E9FF67C0EAFFEE52080EEF6E13
:1018200066C0E9FF67C0EAFF020EE926000EEA2261
:10183000300EEE6E020EED6E66C0E9FF67C0EAFF85
:10184000840EEF6E926B916B905101E1BBDE120042
:10185000D9CFE6FFE1CFD9FFE652080EDF6E0001D7
:10186000795D000E7A590AE279C0DFFF745102E116
:10187000010E03D0740502E1020E746FDF50116A8D
:10188000E850795D796F11507A597A6F6EC0E9FF2F
:101890006FC0EAFFEE52DFCFEFFF380E826F020E0D
:1018A000836F78B118D0DF502DE076C0F6FF77C097
:1018B000F7FF762B000E77230800F550E66E82C006
:1018C000E9FF83C0EAFF822B000E8323E552E75035
:1018D000EF6EDF06E8D7DF5015E076C0E9FF77C08E
:1018E000EAFF762B000E7723EF50E66E82C0E9FF09
:1018F00083C0EAFF822B000E8323E552E750EF6E90
:10190000DF06E9D7E552E552E7CFD9FF1200D9CF7C
:10191000E6FFE1CFD9FF020EE12664C0E9FF65C012
:10192000EAFFEE52EFCFDFFFDFCF10F010500001E3
:101930007E5D000E7F5902E27EC0DFFFDF50106E39
:10194000116AE8507E5D7E6F11507F597F6F010EE6
:10195000DB6ADF50F36E010EDBCFF4FFF350F45C73
:1019600016E2010EDB50EA6A380FE96E020EEA2237
:10197000EF50E66E7BC0E9FF7CC0EAFF7B2B000ED8
:101980007C23E552E750EF6E010EDB2AE2D7000E12
:10199000D8807E55000E7F5527E266C0E9FF67C0FC
:1019A000EAFFEE52080EEF6E66C0E9FF67C0EAFF7D
:1019B000020EE926000EEA22380EEE6E020EED6EE1
:1019C00064C0E9FF65C0EAFFEF50400B06E166C066
:1019D000E9FF67C0EAFFC80E05D066C0E9FF67C02F
:1019E000EAFF880EEF6E28D066C0E9FF67C0EAFF05
:1019F000EE52080EEF6E66C0E9FF67C0EAFF020E06
:101A0000E926000EEA22300EEE6E020EED6E66C082
:101A1000E9FF67C0EAFF840EEF6E8051811107E095
:101A200005D081C0FAFF00018051F96EFADF000194
:101A30007D9F905101E1C6DD020EE15C02E2E16AA8
:101A4000E552E16EE552E7CFD9FF1200D9CFE6FFAC
:101A5000E1CFD9FFE6520001788F020EE66EE66A0A
:101A6000E66A540EE66E0F0EE66E1FEC1BF0106E6B
:101A7000050EE15E1050DF6ADF50106E116A0C0E29
:101A8000105C000E115810E2DF50040DF3CFE9FF97
:101A9000F4CFEAFF000EE926020EEA22EE6AEE6AB1
:101AA000EE6AEE6ADF2AE8D7648CDF6A030EDF5C39
:101AB00010E2DF50EA6A890FE96E000EEA22EF6A4F
:101AC000DF50EA6A8C0FE96E000EEA22EF6ADF2A25
:101AD000EDD7020EE66EE66AE66A620EE66E000E6C
:101AE000E66E1FEC1BF0106E050EE15E1050649C5C
:101AF0000001080E6E6F020E6F6F000E646F020E13
:101B0000656F64C066F0676F32C261F0615102E1D7
:101B1000100E12D0010EE66EE66A610EE66E000E41
:101B2000E66E010EE66EE66A40EC16F0106E060EEA
:101B3000E15E10500001200E606FE552E552E7CFE4
:101B4000D9FF1200800E0201305D58E10001C00E85
:101B5000786F02013351030A2FE0010A09E0030AFA
:101B60004BE10001D60E766F340E776F120E3ED029
:101B70003251F66EF76AD890F636F736970EF6269B
:101B8000350EF7220900F5CF76F00A00F5CF77F091
:101B9000020E0001F76A7625F66E7751F7220800EB
:101BA000F5CF79F0030EF76A7625F66E7751F722B6
:101BB0000800F5CF7AF01200030E325D1AE23251BE
:101BC000F66EF76AD890F636F736990EF626350E89
:101BD000F7220900F5CF76F00A00F5CF77F076C04E
:101BE000F6FF77C0F7FF0800F5500001796F7A6BB8
:101BF00012000001786B12000001786B1200D9CF3F
:101C0000E6FFE1CFD9FF020EE1260201386B396B06
:101C100030511F0B020A11E0030A0CE0010A3CE1FB
:101C20000001788F020138810001840535E102014D
:101C3000388332D00001788F2FD00001788F0201D5
:101C400034BF0BD034510F0BE96EEA6AD890E936F5
:101C5000EA36680EE926000E0AD034510F0BE96E01
:101C6000EA6AD890E936EA366E0EE926000EEA22D4
:101C7000EECFDEFFEDCFDDFFDECFE9FFDDCFEAFF08
:101C8000EF50800B09E0DECFE9FFDDCFEAFFEF5038
:101C9000040B02E0010E386F000178AF07D0380E58
:101CA000766F020E776F7881020E796F020EE15C1B
:101CB00002E2E16AE552E16EE552E7CFD9FF120098
:101CC0000F0153A115D064C0E9FF65C0EAFFEF50D2
:101CD00080080DE16EC0E9FF6FC0EAFFEF50840895
:101CE00006E164C0E9FF65C0EAFF8C0EEF6E539118
:101CF000629A12006084629864820001010E856F0E
:101D0000000EE66EE66AE66EE66A750EE66EE66A56
:101D100040EC16F0106E060EE15E1050120000014D
:101D2000856B000EE66EE66AE66EE66A740EE66E97
:101D3000E66A40EC16F0106E060EE15E10506492FA
:101D4000609462A402D06294FCD71200D9CFE6FF5F
:101D5000E1CFD9FFE65200012D0E8F6FFD0E8615E3
:101D600053E17E0E8615E8407F0B040DF3CF64F03F
:101D7000F4CF65F0000E6427020E652364C066F0A0
:101D800065C067F0667564C0E9FF65C0EAFFEF50A3
:101D90003C0BE842E8420D0835E1DF6A080EDF5CE3
:101DA00023E264C0E9FF65C0EAFF020EE926000EE7
:101DB000EA22EE50EFCFEAFFE96EEF50E66EDF5019
:101DC000EA6A300FE96E020EEA22E552E750EF6E42
:101DD00064C0E9FF65C0EAFF020EE926000EEA22B0
:101DE000EE2AEF22DF2ADAD764C0E9FF65C0EAFFF6
:101DF000020EE926000EEA22300EEE6E020EED6EA5
:101E00000DD807D03AD805D0FD0E8615040801E19B
:101E100059D8E552E552E7CFD9FF12000001746BA3
:101E2000906B936B946B886B756B6EC0E9FF6FC0A2
:101E3000EAFFEF9E6E756EC0E9FF6FC0EAFFEF9E8E
:101E40006E7566C0E9FF67C0EAFFEF9E786B796B3D
:101E50007A6B7D6B7E6B7F6B8FD8000EE66EE66AC9
:101E6000E66EE66A030EE66EE66A40EC16F0106E69
:101E7000060EE15E1050C7EF0BF0020E0001755D1B
:101E800002E187EF0CF0756B88511AE166C0E9FF3B
:101E900067C0EAFFEE52080EEF6E66C0E9FF67C04A
:101EA000EAFF020EE926000EEA22300EEE6E020E66
:101EB000ED6E66C0E9FF67C0EAFF8C0EEF6E1200A0
:101EC000886B1200D9CFE6FFE1CFD9FFE6526EC092
:101ED000E9FF6FC0EAFFEF50400B01E0010EDF6E3B
:101EE00000016E75080E605D0BE132C25CFF0F01F0
:101EF0005C5103E00001100E02D00001040E606F7F
:101F0000750526E16EC0E9FF6FC0EAFF020EE92603
:101F1000000EEA22380EEE6E020EED6E99DC020E15
:101F20000001745D06E16EC0E9FF6FC0EAFF840E38
:101F30000DD0DF5006E16EC0E9FF6FC0EAFFC80EAA
:101F400005D06EC0E9FF6FC0EAFF880EEF6E0FD0BC
:101F50007DAF0CD08051811107E005D081C0FAFF20
:101F600000018051F96EFADF00017D9F756BE5522B
:101F7000E552E7CFD9FF120002013051600BE84271
:101F8000E842E842E842E842000901E0120031512B
:101F90000C0A50E00B0A3FE00C0A31E0010A22E093
:101FA0000B0A1EE0020A1CE0030A18E0080A10E00F
:101FB000010A0CE00F0A08E0030A01E01200000128
:101FC000788F080E606F1200A2EF0DF026EF0DF073
:101FD0000001610E766F000E776F0CD0FFEF0DF0F1
:101FE0001BEF10F034510001766F776B620E76278D
:101FF000000E77237881010E796F788F120000012F
:10200000788F02013451EA6A620FE96E000EEA220B
:1020100032C2EFFF1200000EE66EE66AE66EE66A76
:10202000020EE66EE66A40EC16F0106E060EE15EF9
:10203000105012001200D9CFE6FFE1CFD9FF050EF4
:10204000E1260201320510E130511F0B00090CE1BD
:102050000001788F030E0201315D04E10001010EE1
:10206000846F02D00001846B0201325101E011D172
:1020700030511F0B020801E00CD134510F0B000945
:1020800001E107D134510F0B020801E202D1200E09
:102090000001605D01E0FDD0788F020134BF16D0F1
:1020A00034510F0BE96EEA6AD890E936EA36680EC9
:1020B000E926000EEA22EECFDEFFEDCFDDFF345140
:1020C0000F0BEA6A8C0FE96E000E15D034510F0B1E
:1020D000E96EEA6AD890E936EA366E0EE926000E15
:1020E000EA22EECFDEFFEDCFDDFF34510F0BEA6ABF
:1020F000890FE96E000EEA22020EEFCFDBFFD95006
:10210000020FE96EDACFEAFFEF50010B03E1000E98
:10211000DF9401D0DF8434BF0BD034510F0BE96E54
:10212000EA6AD890E936EA36680EE926000E0AD047
:1021300034510F0BE96EEA6AD890E936EA366E0E32
:10214000E926000EEA22DECFEEFFDDCFEDFF030E23
:10215000315D20E1DECFE9FFDDCFEAFFEF50800BFC
:1021600011E034BF07D034510F0BEA6A8C0FE96ECF
:10217000000E06D034510F0BEA6A890FE96E000E8B
:10218000EA22EF82840EDECFE9FFDDCFEAFFE850DE
:10219000EF127FD0DF74DECFE9FFDDCFEAFFEF5033
:1021A000800B1BE0DECFE9FFDDCFEAFFEF9EDECF45
:1021B000E9FFDDCFEAFFEF8C020EE66EE66ADECFC6
:1021C000E6FFDDCFE6FF050EE66EE66A40EC16F0B0
:1021D000106E060EE15E105005D0DECFE9FFDDCFB8
:1021E000EAFFEF8CDF74D950020FE96EDACFEAFF15
:1021F000EF50020B07E1DECFE9FFDDCFEAFFEF5042
:10220000800B2BE0020134BF07D034510F0BEA6A78
:102210008C0FE96E000E06D034510F0BEA6A890F5D
:10222000E96E000EEA22EF923B0E106EDECFE9FF60
:10223000DDCFEAFFE850EF16020EE66EE66ADECF6B
:10224000E6FFDDCFE6FF050EE66EE66A40EC16F02F
:10225000106E060EE15E105007D03B0EDECFE9FF98
:10226000DDCFEAFFE850EF16020134510F0B116A7F
:10227000530F106E0F0E1122030E10C0DBFF040E61
:1022800011C0DBFF030EDBCFE9FF040EDBCFEAFF5B
:10229000EF90050EE15C02E2E16AE552E16EE55283
:0622A000E7CFD9FF120098
:0A22A600DACFE4FFE652F250200BFD
:1022B0000EE0F250040B0BE0F294F40ED76E480ED1
:1022C000D66E01014D2B000E4E234F235023F250AA
:1022D000100B13E0F250020B10E001014C2BD890D0
:1022E0004037413742374337F2924DC148F14EC132
:1022F00049F14FC14AF150C14BF1F050100B15E0BC
:10230000F050020B12E0010140814C2BD890403775
:10231000413742374337F0924DC148F14EC149F140
:102320004FC14AF150C14BF18B86E552E5CFDAFF40
:102330001100D8CFE4FFE0CFE4FFE46EDACFE4FF92
:10234000E652E552E5CFDAFFE550E5CFE0FFE5CF15
:10235000D8FF100004D8A6EC08F0CCDBFCD70F0E99
:10236000C11202D816EF08F0D9CFE6FFE1CFD9FFAE
:10237000E65246D8DF6ADF50106E116A400E105CDC
:10238000000E115809E2DF50EA6A6D0FE96E010E86
:10239000EA22EF6ADF2AEFD701014D6B4E6B4F6BDC
:1023A000506B486B496B4A6B4B6B406B416B426B9C
:1023B000436B4C6B446B456B466B476B8B6A946A03
:1023C0008B827E6A94809484F19CF288F198F088E4
:1023D000F292F092810ED56EF294F40ED76E480E02
:1023E000D66EF28AF28E696B6A6B6B6B6C6BED6BFF
:1023F000EE6BF06BF16BE552E552E7CFD9FF1200BF
:10240000D9CFE6FFE1CFD9FFE6527F6A938A939E48
:10241000240EAC6E900EAB6E710EAF6E020EB06EEF
:10242000080EB86EAE50DF6EE552E552E7CFD9FF29
:102430001200D9CFE6FFE1CFD9FFFE0EDB50AD6E23
:10244000E552E7CFD9FF1200D9CFE6FFE1CFD9FFA0
:10245000040EE126D880000E02014055C20E4155FF
:10246000010E4255000E43553CE340C2CAF241C240
:10247000CBF242C2CCF243C2CDF2146A1B0E156EEF
:10248000B70E166E176A14C004F015C005F0066E7C
:1024900017C007F0CAC209F0CBC20AF0CCC20BF0D9
:1024A000CDC20CF068EC1BF004C010F005C011F0B8
:1024B00006C012F007C013F01006000E115A125A8F
:1024C000135A10C0DFFF010E11C0DBFF020E12C055
:1024D000DBFF030E13C0DBFFDF50AF6E010EDB50DE
:1024E000B06E040EE15C02E2E16AE552E16EE55293
:1024F000E7CFD9FF1200D9CFE6FFE1CFD9FFE652EF
:10250000ABA205D0AB98AE50DF6EAB8802D0AE5018
:10251000DF6EDF50E552E552E7CFD9FF1200D9CF89
:10252000E6FFE1CFD9FF040EE12610681168010E25
:10253000126E136AD950FB0FE96EFF0EDA20EA6EB5
:10254000EE501016EE501116EE501216EE501316F5
:1025500010C0DFFF010E11C0DBFF020E12C0DBFF57
:10256000030E13C0DBFFD9CFE9FFDACFEAFFEECFCE
:1025700010F0EECF11F0EECF12F0EFCF13F0D890B5
:10258000133212321132103210C0DFFF010E11C0AF
:10259000DBFF020E12C0DBFF030E13C0DBFFDECF3A
:1025A00004F0DECF05F0DECF06F0DDCF07F0DD5220
:1025B000DD52040EE15C02E2E16AE552E16EE552B1
:1025C000E7CFD9FF1200D9CFE6FFE1CFD9FF050E43
:1025D000E126106AF00E116E1268030E136ED950C8
:1025E000FB0FE96EFF0EDA20EA6EEE501016EE5089
:1025F0001116EE501216EE50131610C0DFFF010E2A
:1026000011C0DBFF020E12C0DBFF030E13C0DBFFA5
:10261000D9CFE9FFDACFEAFFEECF10F0EECF11F01D
:10262000EECF12F0EFCF13F0110ED890133212321A
:1026300011321032E806F9E110C0DFFF010E11C0BF
:10264000DBFF020E12C0DBFF030E13C0DBFFD9CF8E
:10265000E9FFDACFEAFFEECF10F0EECF11F0EECFC8
:1026600012F0EFCF13F0010E1016116A126A136AFE
:10267000105011101210131008E0D9CFE9FFDACF73
:10268000EAFFEE52010EEE1606D0D9CFE9FFDACFFF
:10269000EAFFEE52EE6AEE6AEE6ADECF04F0DECFBB
:1026A00005F0DECF06F0DDCF07F0DD52DD52050E7E
:1026B000E15C02E2E16AE552E16EE552E7CFD9FF63
:1026C0001200D9CFE6FFE1CFD9FFE652DF6ADFCFB4
:1026D00010F0FC0EDB50E76E1018E8AE02D0E734C5
:1026E00002D0E750105C1CE2DFCF10F0116A10BE80
:1026F0001168FD0EDB501024E96EFE0EDB50112038
:10270000EA6EEF50E66E0101EE51EE2BEA6AAD0F74
:10271000E96E010EEA22E552E750EF6EDF2AD7D7C5
:10272000E552E552E7CFD9FF1200D9CFE6FFE1CF5E
:10273000D9FF080EE126D950010FE96EDACFEAFF82
:10274000300EEE6E780EEE6EEE6A040EDB6A070E49
:10275000DB6A0101EE6B4C513EE0480EE96E010E62
:10276000EA6EEE504D5D106EEE504E59116EEE5009
:102770004F59126EEE505059136ED880320E1054CD
:10278000000E1154000E1254000E135424E2190EC0
:10279000E76E4C19E8AE02D04C3503D0E750D88034
:1027A0004C5513E240C144F141C145F142C146F1EB
:1027B00043C147F1010E1F0B08E00101D8904733D8
:1027C000463345334433E806F9E10101406B416B80
:1027D000426B436B4C6B445145114611471101E16B
:1027E0007FD18B96070EDBCFE9FFEA6AE9BEEA6884
:1027F000AD0EE926010EEA22300EEF6E070EDB2A3F
:10280000DBCFE9FFEA6AE9BEEA68AD0EE926010E10
:10281000EA22780EEF6E070EDB2A44C1E6FF45C1BF
:10282000E6FF46C1E6FF47C1E6FF79DEE552E55225
:10283000E552E55204C051F105C052F106C053F112
:1028400007C054F144C1E6FF45C1E6FF46C1E6FFBB
:1028500047C1E6FFB8DEE552E552E552E55204C055
:1028600055F105C056F106C057F107C058F1DF6AAF
:10287000DFCF10F0100EE76E1018E8AE02D0E7348C
:1028800002D0E750105C0CE2DFCFE9FFEA6AE9BE54
:10289000EA68590EE926010EEA22EF6ADF2AE8D734
:1028A000060EDF6EDFCF10F0FF0EE76E1018E8AEF9
:1028B00002D0103403D0E750D880105446E2040E02
:1028C000DF02F3501F0B44C110F045C111F046C1A7
:1028D00012F047C113F007E0D890133212321132D0
:1028E0001032E806F9E10F0E1016116A126A136A27
:1028F000040E10C0DBFFDBCF10F0090EE76E1018DE
:10290000E8AE02D0103403D0E750D880105404E36E
:10291000040EDB50300F03D0040EDB50370FE76E90
:10292000040EE7CFDBFF070EDBCFF3FFDB2AF3500C
:10293000E96EEA6AE9BEEA68AD0EE926010EEA220E
:10294000040EDBCFEFFFDF06ADD7070EDBCFE9FFCD
:10295000EA6AE9BEEA68AD0EE926010EEA22200E17
:10296000EF6E070EDB2ADBCFE9FFEA6AE9BEEA6811
:10297000AD0EE926010EEA225B0EEF6E070EDB2A92
:10298000590EE66E010EE66E55C1E6FF56C1E6FF32
:10299000FCEC18F0E552E552E552E552590EE66EB0
:1029A000010EE66E070EDBCF10F0116A10BE116843
:1029B000AD0E1026010E112210C0E6FF11C0E6FF79
:1029C00039EC1BF0E552E552E552E552590EE66E40
:1029D000010EE66E5AEC1BF0E552E552070EDBCF16
:1029E000E7FFF350E726070EE7CFDBFFDBCFE9FF7A
:1029F000EA6AE9BEEA68AD0EE926010EEA225D0E3A
:102A0000EF6E070EDB2ADBCFE9FFEA6AE9BEEA6870
:102A1000AD0EE926010EEA22200EEF6E070EDB2A2C
:102A2000590EE66E010EE66E51C1E6FF52C1E6FF99
:102A300053C1E6FF54C1E6FF96EC19F0106E060E86
:102A4000E15E1050590EE66E010EE66E070EDBCF0A
:102A500010F0116A10BE1168AD0E1026010E112281
:102A600010C0E6FF11C0E6FF39EC1BF0E552E5525D
:102A7000E552E552590EE66E010EE66E5AEC1BF079
:102A8000E552E552070EDBCFE7FFF350E726070ECE
:102A9000E7CFDBFF0001010EB86F0101EF6B070EFE
:102AA000DBCFE9FFEA6AE9BEEA68AD0EE926010E6E
:102AB000EA220D0EEF6E070EDB2ADBCFE9FFEA6A92
:102AC000E9BEEA68AD0EE926010EEA220A0EEF6EB3
:102AD000070EDB2ADBCFEEF1446B456B466B476B91
:102AE000080EE15C02E2E16AE552E16EE552E7CFF1
:102AF000D9FF12001ADE200E0001E76E6019E8AE61
:102B000002D0E73402D0E750605D4FE36450020B1F
:102B100001E012000001B85117E0AC50020B14E0C4
:102B2000EEC1E6FF0101EF51116AAD0F106E010E0B
:102B3000112210C0E6FF11C0E6FFBFEC17F0E5520E
:102B4000E552E5520001B86B9E50200B18E03F0E95
:102B50000101ED5D14E2CFDCE66E0101ED51EA6AA0
:102B60006D0FE96E010EEA22E552E750EF6EED2B94
:102B7000ED51EA6A6D0FE96E010EEA22EF6A00017B
:102B8000965111E10101ED5100080DE2EDC1E6FFA2
:102B90006D0EE66E010EE66EBFEC17F0E552E552E3
:102BA000E5520101ED6B57EC18F012000001B9512C
:102BB000BA1104E1100EB96F270EBA6FB907000EF3
:102BC000BA5B64A207D0B951BA112EE18B708BB0F9
:102BD00013D027D00001605102E18B9022D0600514
:102BE00002E18B8009D0020E605D02E18B8019D07A
:102BF000040E605D03E18B908B821200100E605D0D
:102C000006E10001B951BA110FE18B700AD0200E14
:102C1000605D0AE10001B951BA1106E18B708BA029
:102C200002D08B9212008B8212001200120012004E
:102C300012008AEF16F01200E5EF16F0000184058D
:102C40001EE1000185051BE1F1DF64920001856B47
:102C50000101100EF26F0E0EF36FF207000EF35B20
:102C6000F251F311FAE16484080EF26F070EF36F6C
:102C7000F207000EF35BF251F311FAE164941200D3
:102C8000D9CFE6FFE1CFD9FFFD0EDBCF06F0FE0E78
:102C9000DBCF07F0050E061801E1075036E0E868C3
:102CA000061802E17F0E07182FE0030E061801E157
:102CB000075028E0020E061801E1075021E0010E3E
:102CC000061801E107501AE0740E061801E10750DA
:102CD00013E0750E061801E107500CE0730E06189C
:102CE00001E1075005E0720E06180FE107500DD004
:102CF0009EDF0BD09ADF09D099DF07D09DDF05D08A
:102D00009ADF03D096DF01D093DF010EE552E7CFC3
:042D1000D9FF1200D5
:0C2D1400020130511F0B010801E0120009
:102D20003051600BE842E842E842E842E8420108DC
:102D300001E01200345103E0340501E0120031518A
:102D4000220A33E0030A26E0010A15E0210A0DE019
:102D5000010A01E012000001A60E766F000E776FE7
:102D6000080E796F7A6B78812ED00001A60E766FEF
:102D7000000E776F28D036C27EF037C27FF0000198
:102D8000400E7B6F020E7C6F480E806F240E816FA9
:102D90007D8F12000001CA0E766F020E776F070E4C
:102DA000796F7A6BC10E786F120032C2A1F0000108
:102DB000A1A302D08B9E01D08B8EA1A102D08B96B5
:102DC00001D08B860001788F12000201CA6B4B0E76
:102DD000CB6FCC6BCD6BCE6BCF6B080ED06F000181
:102DE000956B1A0EE66E010EE66E6CEC09F0E5527C
:102DF000E5521E0EE66E020EE66E6CEC09F0E55230
:102E0000E552400EE66E4A0EE66E020EE66EE66A89
:102E1000020EE66EA3EC09F0106E050EE15E105096
:102E2000F3CF9DF0F4CF9EF000019F6BA06B9496C2
:102E3000966B1200D9CFE6FFE1CFD9FFFD0EDBCFB5
:102E400006F0FE0EDBCF07F0050E061801E1075075
:102E500002E0000E30D0FB0EDBCF10F0FC0EDBCF1B
:102E600011F000019D51101816E19E51111813E147
:102E7000400EE66E4A0EE66E020EE66EE66A020E40
:102E8000E66EA3EC09F0106E050EE15E1050F3CF74
:102E90009DF0F4CF9EF0FB0EDBCF10F0FC0EDBCFED
:102EA00011F000019F51101805E1A051111802E125
:102EB000966B9B6B010EE552E7CFD9FF1200D9CF7D
:102EC000E6FFE1CFD9FF0001956B9D519E1102E114
:102ED000000E08D09DC0E9FF9EC0EAFFEF50800BB6
:102EE00001E0010E000945E1FC0EDBCF10F09DC0B2
:102EF000E9FF9EC0EAFFEE52EF50D880105408E27E
:102F00009DC0E9FF9EC0EAFFEE52FC0EEFCFDBFF53
:102F1000956BFC0EDB50955D19E29551EA6A4A0FFC
:102F2000E96E020EEA22EF50E66E9551E76EFD0E55
:102F3000DBCFE9FFFE0EDBCFEAFFE750E926000E0C
:102F4000EA22E552E750EF6E952BE3D7400EE66E8E
:102F50004A0EE66E020EE66EE66A020EE66EA3EC1E
:102F600009F0106E050EE15E1050F3CF9DF0F4CF26
:102F70009EF000019551E552E7CFD9FF1200D9CF5D
:102F8000E6FFE1CFD9FF000196510CE1FD0EDBCF4A
:102F900097F0FE0EDBCF98F0FC0EDBCF9BF0010E1E
:102FA0009C6F966FE552E7CFD9FF1200D9CFE6FFAD
:102FB000E1CFD9FF030EE126000196512DE1DF6A32
:102FC000FD0EDBCF06F0FE0EDBCF07F0DE5206C0B3
:102FD000DEFF07C0DDFFDD52DF2ADF50106E116A11
:102FE000FF0E101802E111500BE0010EDBCFE9FFDC
:102FF000DB2A020EDBCFEAFF01E3DB2AEF50ECE134
:10300000FD0EDBCF97F0FE0EDBCF98F0DFCF9BF00D
:103010000001010E9C6F966F030EE15C02E2E16A13
:10302000E552E16EE552E7CFD9FF1200D9CFE6FFB6
:10303000E1CFD9FF030EE126000196512EE1DF6AB0
:10304000FD0EDBCF06F0FE0EDBCF07F0DE5206C032
:10305000DEFF07C0DDFFDD52DF2ADF50106E116A90
:10306000FF0E101802E111500CE0010EDBCFF6FF4D
:10307000DB2A020EDBCFF7FF01E3DB2A0800F55065
:10308000EBE1FD0EDBCF97F0FE0EDBCF98F0DFCF4C
:103090009BF000019C6B010E966F030EE15C02E257
:1030A000E16AE552E16EE552E7CFD9FF1200D9CFD0
:1030B000E6FFE1CFD9FF020EE12600019F51A011EA
:1030C00002E1000E08D09FC0E9FFA0C0EAFFEF5068
:1030D000800B01E0010E000901E084D0030E965D33
:1030E00001E1966B965101E17DD0020E965D16E1ED
:1030F000E66A000EE66EE66A010EE66E020EE66E07
:10310000A3EC09F0106E050EE15E1050F3CF9FF0B6
:10311000F4CFA0F00001030E966F64D0960562E133
:10312000400E106E116A9B51105C000E115803E2A4
:10313000400EDF6E02D09BC0DFFFDF509B5D9B6FB8
:103140008A0E996F020E9A6F010EDFCFDBFF9C5142
:1031500016E1010EDB5028E097C0F6FF98C0F7FF9C
:103160000800F55099C0E9FF9AC0EAFFEF6E992B6D
:10317000000E9A23972B9823010EDB06EAD7010E47
:10318000DB5012E097C0E9FF98C0EAFFEF5099C00A
:10319000E9FF9AC0EAFFEF6E992B000E9A23972B56
:1031A0009823010EDB06EBD700019B5107E1400E8F
:1031B000DF5C02E1020E01D0030E966FDFCFE6FF67
:1031C0008A0EE66E020EE66E010EE66E020EE66EE8
:1031D000A3EC09F0106E050EE15E1050F3CF9FF0E6
:1031E000F4CFA0F0020EE15C02E2E16AE552E16E8A
:0831F000E552E7CFD9FF120000
:0831F800D9CFE6FFDACFE6FFB4
:10320000FA0EE3CFD9FFFB0EE3CFDAFFFD0EE35258
:1032100009E72D0EDE6EFC0EE31EE32AFD0ED8B488
:10322000E306E31EE652E652E652FD0EE124E76EA7
:10323000FF0EE220E46EE652F70EE3CFE6FFF70E54
:10324000E3CFE6FF6CEC19F0F90EE124E96EFF0E16
:10325000E220EA6E5CEC19F00AE159EC19F009E1A0
:103260005CEC19F008E159EC19F007E108D067ECC3
:1032700019F062EC19F067EC19F062EC19F067ECE8
:1032800019F0DE6AF90EE126FF0EE222FF0EE3CF0F
:10329000DAFFE552FF0EE3CFD9FFE552FC0EE12441
:1032A000E96EFF0EE220EA6EEECFF3FFEFCFF4FF00
:1032B0001200EF380F0B1200EF500F0B02E1EE522D
:1032C000D8841200EF380F0B300FDE6E1200EE5074
:1032D0000F0B300FDE6E1200FC0EE3CFE9FFFD0E88
:1032E000E3CFEAFF100EE66EEE6AEE6AEF6AD89060
:1032F000FD0EE336FE0EE336ED36ED36EF36FF0E0D
:10330000E30609E08DEC19F0EE528DEC19F0EE5267
:103310008DEC19F0EDD7E56E1200030EEF24E8B640
:10332000EF6E300EEF24E8BEEF6E000CD9CFE6FF53
:10333000DACFE6FFF80EE3CFD9FFF90EE3CFDAFFDD
:10334000FD0EE35215E72D0EDE6EFA0EE31EFB0EA8
:10335000E31EFC0EE31EFD0EE31EFA0EE32A08E157
:10336000FB0EE32A05E1FC0EE32A02E1FD0EE32A4F
:10337000E652E652E652E652E652FB0EE124E76ED2
:10338000FF0EE220E46EE652F30EE3CFE6FFF30E0B
:10339000E3CFE6FFF30EE3CFE6FFF30EE3CFE6FF66
:1033A00033EC1AF0F50EE124E96EFF0EE220EA6E2E
:1033B00020EC1AF019E123EC1AF018E120EC1AF0D5
:1033C00017E123EC1AF016E120EC1AF015E123ECDA
:1033D0001AF014E120EC1AF013E123EC1AF012E1D8
:1033E00020EC1AF011E112D029EC1AF02EEC1AF0B0
:1033F00029EC1AF02EEC1AF029EC1AF02EEC1AF047
:1034000029EC1AF02EEC1AF029EC1AF02EEC1AF036
:10341000DE6AF50EE126FF0EE222FF0EE3CFDAFFB1
:10342000E552FF0EE3CFD9FFE552FA0EE124E96E33
:10343000FF0EE220EA6EEECFF3FFEFCFF4FF1200B3
:10344000EF380F0B1200EF500F0B02E1EE52D88451
:103450001200EF380F0B300FDE6E1200EE500F0B24
:10346000300FDE6E1200FA0EE3CFE9FFFB0EE3CF62
:10347000EAFF200EE66EEE6AEE6AEE6AEE6AEF6A28
:10348000D890FB0EE336FC0EE336FD0EE336FE0E5F
:10349000E336ED36ED36ED36ED36EF36FF0EE3066C
:1034A0000FE062EC1AF0EE5262EC1AF0EE5262ECAF
:1034B0001AF0EE5262EC1AF0EE5262EC1AF0E1D71A
:1034C000E56E1200030EEF24E8B6EF6E300EEF2427
:0634D000E8BEEF6E000CE7
:0A34D6001201000202000008D804F1
:1034E0000A0000010102000109024300020100C0BC
:1034F0003209040000010202010005240010010449
:1035000024020205240600010524010001070581AB
:103510000308000209040100020A00000007050276
:103520000240000007058202400000040309043441
:10353000034D006900630072006F0063006800695A
:10354000007000200054006500630068006E006F8A
:10355000006C006F0067007900200049006E006376
:10356000002E003403430044004300200052005367
:10357000002D00320033003200200045006D007540
:10358000006C006100740069006F006E0020004450
:0F3590000065006D006F00E8342B352F35633573
:1035A0001E0EF66E100EF76E000EF86E000109008A
:1035B000F550B36F0900F550B46F03E1B36701D064
:1035C0003DD00900F550AE6F0900F550AF6F09000E
:1035D000F550B06F09000900F550E96E0900F5508B
:1035E000EA6E090009000900F550B16F0900F550B5
:1035F000B26F09000900F6CFB5F0F7CFB6F0F8CFFB
:10360000B7F0AEC0F6FFAFC0F7FFB0C0F8FF0001E3
:10361000B15302E1B25307E00900F550EE6EB10775
:10362000F8E2B207F9D7B5C0F6FFB6C0F7FFB7C0EA
:0E363000F8FF0001B307000EB45BBFD7120015
:02363E00FE0E7E
:10364000E3CFE9FFFF0EE3CFEAFFE9CFF3FFEACFD5
:10365000F4FFFB0EE35003E1FC0EE35009E0FB0E28
:10366000E30602E2FC0EE306FD0EE350EE6EF1D738
:103670001200D9CFE6FFDACFE6FFFA0EE3CFD9FF8B
:10368000FB0EE3CFDAFFFC0EE3CFE9FFFD0EE3CF45
:10369000EAFFE9CFF3FFEACFF4FFDECFEFFFEE66FC
:1036A000FCD7FF0EE3CFDAFFE552FF0EE3CFD9FFE1
:1036B000E5521200FE0EE3CFE9FFFF0EE3CFEAFF73
:1036C000F36AF46AEE5203E0F34AF42AFBD71200DD
:1036D000036A026A016A006A200EE76ED890043617
:1036E00005360636073600360136023603360950EF
:1036F000005C0A5001580B5002580C50035809E363
:103700000950005E0A50015A0B50025A0C50035ADD
:08371000042AE72EE4D71200A1
:08371800000EF36E00EE00F05C
:10372000030E01D81200EA6002D0EE6AFCD7F35013
:08373000E9601200EE6AFCD70B
:0837380011EE00F021EE00F09B
:10374000F86A0F9CD0EC1AF003EC08F0AAEC11F028
:04375000FBD7120091
:020000040030CA
:0100000000FF
:0100010032CC
:0100020021DC
:010003001EDE
:0100050000FA
:010006008178
:0100080003F4
:01000900C036
:01000A0003F2
:01000B00E014
:01000C0003F0
:01000D0040B2
:00000001FF
