:020000040000FA
:06000000C1EF17F0120031
:0600080004EF08F01200F5
:060018000CEF08F01200DD
:06100000C1EF17F0120021
:021006001200D6
:0610080097EF0EF012004C
:02100E000000E0
:0110100000DF
:061018000CEF0FF01200C6
:02101E000100CF
:0C1020000E100000B700000003000000EC
:04102C0062EC0EF074
:10103000A0940F015F6B626A536BACEC0DF0E2ECB5
:101040000DF0DF6AEAEC0DF003E292EC0DF0FAD756
:10105000648C0F015C6B6498649C62A607D06296F6
:101060000001776B7C6B7D6B7E6BF7D70001010E07
:10107000906F916F926B936B846BDF6A030EDF5CF2
:1010800011E2EA6ADF3465EC0EF0EA22EE6AED6AFC
:10109000EA6ADF346CEC0EF0EA22EE6AED6AA2EC4A
:1010A0000DF0ECD70001080E6D6F020E6E6F0F0190
:1010B000160E536F0201300E026F020E036F080E00
:1010C000016F840E006F0001616B606BE5526CEF85
:1010D0000DF062EC0EF00001600507E164BA05D086
:1010E000626A60806088020E606F6250040B05E0E7
:1010F0006050040B02E062949AD864B246D0625009
:10110000010B09E06050010B06E090DFA0840001B4
:10111000040E606F62906250100B05E06050100B7F
:1011200002E07AD8629862AC0FD060AC05D001ECD6
:101130000EF0730E59EC0DF0629C00018E5101E02F
:101140008E078E5101E125DA6250200B04E06050D9
:10115000200B01E04DD86250020B0CE06050020BF6
:1011600009E001EC0EF0E6687F0EE66E73EC0EF01F
:101170000F015F6B040E0001E76E6019E8AE02D04C
:10118000E73402D0E750605D02E2A1942ED060A661
:101190002BD0DF6A040EDF5C27E262A625D063CF86
:1011A00085F000018551780BE842E842E842866FFD
:1011B000629685B504D086517AEC0EF003D0865144
:1011C0007FEC0EF0EA22EF70865102E13ED80AD0A1
:1011D000000EE66EE66A850EE66E000EE66E720E94
:1011E00059EC0DF0DF2AD6D7A194E5526CEF0DF043
:1011F0000F0153A10FD078EC0DF0EF50800809E1FA
:1012000062EC0DF0EF50840804E178EC0DF08C0EE8
:10121000EF6E5391629A12006084629864820001BA
:10122000010E846FC8EC0DF0750E59EF0DF0000142
:10123000846BC8EC0DF0740E59EC0DF06492609460
:1012400062A402D06294FCD7120062EC0EF000019E
:101250002D0E8E6FFD0E851540E17E0E8515E84042
:101260007F0B040DF3CF63F0F4CF64F0000E63271F
:10127000020E642363C065F064C066F0657578ECA7
:101280000DF0EF503C0BE842E8420D0824E1DF6A24
:10129000080EDF5C1AE278EC0DF0020EE926000E73
:1012A000B5EC0DF0EF50E66EDF50EA6A300FE96EF4
:1012B000020EEA22E552E750EF6E78EC0DF08EEC6C
:1012C0000EF0EE2AEF22DF2AE3D778EC0DF02EECB9
:1012D0000EF00BD807D026D805D0FD0E85150408D2
:1012E00001E12FD8E5526CEF0DF00001736B8F6BAD
:1012F000926B936B876B746BE5DBEF9E6D75E2DB36
:10130000EF9E6D751DEC0EF0EF9E776B786B796B31
:101310007C6B7D6B7E6B53D8C8EC0DF0030EC9DB84
:1013200083EF0BF0020E0001745D02E1EFEF0BF0B2
:10133000746B875104E1B4DB8C0EEF6E1200876B87
:10134000120062EC0EF0BEDBEF50400B01E0010E2C
:10135000DF6E00016D75080E605D0BE132C25CFF4F
:101360000F015C5103E00001100E02D00001040ED9
:10137000606F740513E1A6DBC0DBF2D9020E000139
:10138000735D03E19FDB840E07D0DF5003E19ADB3E
:10139000C80E02D097DB880EEF6E0FD07CAF0CD05A
:1013A0007F51801107E005D080C0FAFF00017F5116
:1013B000F96EFADF00017C9F746BE5528DD3020158
:1013C0003051600BE842E842E842E842E842000956
:1013D00001E0120031510C0A45E00B0A3FE00C0A13
:1013E00031E0010A22E00B0A1EE0020A1CE0030AB7
:1013F00018E0080A10E0010A0CE00F0A08E0030AEE
:1014000001E012000001778F080E606F12000BEFF1
:101410000BF053EF0CF00001610E756F000E766F4C
:101420000CD048EF0BF033EF0AF034510001756F28
:10143000766B620E7527000E76237781010E786F2A
:10144000778F12000001778F02013451EA6A620F30
:10145000E96E000EEA2232C2EFFF120099DB020EA3
:1014600059EF0DF0120033DB050EE12602013205C3
:1014700010E130511F0B00090CE10001778F030EC2
:101480000201315D04E10001010E836F02D0000111
:10149000836B0201325101E075D030511F0B0208FD
:1014A00071E134510F0B00096DE034510F0B02084C
:1014B00069E3200E0001605D65E1778F020134BFB2
:1014C00004D0E7DB6BDB70DB03D0E8DB67DB70DBD2
:1014D000EA22020EEFCFDBFF9BDB010B03E1000EE4
:1014E000DF9401D0DF8434BF02D0D3DB01D0D6DB60
:1014F000EA22DECFEEFFDDCFEDFF030E315D0DE121
:10150000D2DB07E034BF02D04FDB01D051DBEA224F
:10151000EF82840E93EC0EF035D0DF74C4DB06E06E
:10152000CCDAEF9ECADAEF8CA3DB02D0C6DAEF8CFE
:10153000DF746EDB020B02E1B6DB0DE0020134BFAB
:1015400002D032DB01D034DBEA22EF923B0E106E88
:10155000DBDB8EDB02D03B0ED7DB020134510F0BFD
:10156000116A530F106E0F0E1122030E10C0DBFF15
:10157000040E11C0DBFF030EDBCFE9FF040EDBCF4F
:10158000EAFFEF90050EE15C02E2E16AE552E16EEE
:10159000A3D20001905121E1010E906F91511DE104
:1015A000010E916F020E745D07E18CDAEE52EF6A64
:1015B00089DAC80EEF6E120074050FE1876B98DAB6
:1015C000EE52080EEF6E94DA49DB92DA840EEF6E7B
:1015D000010E876F65DA800EEF6E12000001926BCC
:1015E000936B020E745D04E193DB87DA26DB10D087
:1015F00078510201365D000179510201375904E248
:1016000036C278F037C279F0ABD85CDA76DA5ADADB
:10161000C80EEF6E1200800E0201305D38E100014D
:10162000C00E776F02013351030A1AE0010A09E084
:10163000030A2BE10001200E756F2D0E766F120E3E
:101640001ED0F4DAE10EF6262D0ECCDA020E0001E1
:10165000E6DAF5CF78F0030EE2DAF5CF79F0120092
:10166000030E325D0FE2E2DAE30EF6262D0EBADA51
:1016700075C0F6FF76C0F7FF0800F5500001786FDF
:10168000796B12000001776B12000001776B12007A
:10169000EBDA0201386B396B30511F0B020A11E093
:1016A000030A0CE0010A1EE10001778F0201388174
:1016B0000001830517E10201388314D00001778F00
:1016C00011D00001778F020134BF02D0E2DA01D0DD
:1016D000E5DA64DAE8DA06E0F0D9EF50040B02E06C
:1016E000010E386F000177AF07D0380E756F020E0C
:1016F000766F7781020E786F020EE15C02E2E16A9A
:10170000E552E16EE9D16498000177BF0DD07CAF5E
:1017100009D0020E746F935101E160DF0001916BFB
:10172000906B120042EF0EF0020130AF0DD00001BD
:10173000010E746F925101E151DF0001916B906BCA
:101740008F510DE1C9EF0AF00001020E746FA8D9A4
:10175000840EEF6E916B906B8F5101E11ADF1200D6
:10176000B1DA080EDF6E0001785D000E79590AE2E9
:1017700078C0DFFF735102E1010E03D0730502E16F
:10178000020E736FDF50116AE850785D786F115068
:101790007959796F97D9EE52DFCFEFFF380E816F0D
:1017A000020E826F77B10DD0DF5017E075C0F6FFE3
:1017B00076C0F7FF752B000E76230800F550DBD9B5
:1017C000F3D7DF500AE075C0E9FF76C0EAFF752B5A
:1017D000000E7623EF50CFD9F4D7E5527DD144DA0D
:1017E00087D9EE52EFCFDFFFDFCF10F010500001AE
:1017F0007D5D000E7E5902E27DC0DFFFDF50106E7E
:10180000116AE8507D5D7D6F11507E597E6F010E2B
:10181000DB6ADF50F36E010EDBCFF4FFF350F45CB4
:1018200016E2010EDB50EA6A380FE96E020EEA2278
:10183000EF50E66E7AC0E9FF7BC0EAFF7A2B000E1C
:101840007B23E552E750EF6E010EDB2AE2D7000E54
:10185000D8807D55000E7E550DE25ADA4ED948D912
:10186000EF50400B03E1E9D9C80E02D0E6D9880E4B
:10187000EF6E12D015D9840EEF6E7F51801107E004
:1018800005D080C0FAFF00017F51F96EFADF000138
:101890007C9F8F5101E17DDE020EE15C02E2E16A94
:1018A000E552E16E19D10EDA0001778F55D9DF6A62
:1018B00091D902E237D9FCD7648CDF6A030EDF5C72
:1018C00002E240D9FBD7010EE66EE66AE66A620ED6
:1018D000E66E000EEFD9649C0001080E6D6F020EDB
:1018E0006E6F000E636F020E646F63C065F0666F0B
:1018F00032C261F0615102E1100E0BD0010EE66EB2
:10190000E66A610EE66E000EE66E010ED2D80001A8
:10191000200E606FE552E0D0A7D9000EDE6E020EF9
:10192000DD6EF1D8040DF4CF11F0D9CFE9FFDACF95
:10193000EAFFF350EE261150ED22BFD8EF9EFD0EC8
:10194000DB5002E1EAD801D0AFD8EA22DECFEEFFC9
:10195000DDCFEDFFB2D8EF9CB0D8040EE926000E23
:10196000EA22EF8C020EE15C02E2E16AE552E16EEE
:10197000B3D07AD9FD0EDBA402D0E66A3BD9FD0EC6
:10198000DBA203D0010EE66E35D9FE0EDB50116AE4
:10199000530F106E0F0E10D990D8FD0EDBCFEFFF56
:1019A000020EE15C02E2E16AE552E16E95D05CD99B
:1019B000FE0EDB5002E166D905D0A5D843D9A3D8E5
:1019C000010F40D9020EE15C02E2E16AE552E16EEC
:1019D00083D04AD9FD0EDB5002E066D801D09DD8F5
:1019E000DDD8D9CFE9FFDACFEAFFEE50ED1003E101
:1019F000F36AF46A21D061D891D9FB0EDBCFEEFFF8
:101A0000FC0EDBCFEDFF59D8EE52FA0EDBCFEFFF25
:101A1000400E7AD9880E87D9FD0EDB5002E044D8FB
:101A200001D07BD8EA22EF74DECF10F0DDCF11F0C9
:101A300010C0F3FF11C0F4FF020EE15C02E2E16AA4
:101A4000E552E16E49D043D864A812D030D9400E97
:101A5000EE16EE6AEE6AEE6A2AD9EE7C25D8EA2204
:101A6000EF74400E106E23D91050EF1620D9EF7C82
:101A700033D0646A606A0001606B1200000160513B
:101A80000EE1646A606A9ED8D08EA284A084F28E31
:101A900064B602D06486FCD70001010E606F1200AC
:101AA00037D9DCD81DEF0EF0FE0EEA6ADB3465EFA5
:101AB0000EF0E66EE66A73EF0EF0DECFE9FFDDCFE3
:101AC000EAFF12006DC0E9FF6EC0EAFF1200D9CF35
:101AD000E6FFE1CFD9FF1200E552E7CFD9FF1200B0
:101AE00034510F0BE96EEA6AD890E936EA361200F3
:101AF00063C0E9FF64C0EAFF120010D9380EEE6E31
:101B0000020EED6E1200FD0EDB50E824126EFE0E8A
:101B1000DB50040DF35012241200FE0EEA6ADB348F
:101B20006CEF0EF0DF50040DF3CFE9FFF4CFEAFFC6
:101B3000000EE926020EEA22EE6AEE6AEE6AEE6A0C
:101B4000DF2A1200DF50DBD8EA22EF6ADF50D2D85A
:101B5000EA22EF6ADF2A1200020EE66EE66AE66A01
:101B6000540EE66E0F0E5AEF0EF0EA22EE50EFCF53
:101B7000EAFFE96E1200E66E81C0E9FF82C0EAFF6B
:101B8000812B000E8223E552E750EF6EDF06120034
:101B9000000EE66EE66AE66EE66A1200EA22EECF14
:101BA000DEFFEDCFDDFF120034510F0B7AEF0EF0A8
:101BB00034510F0B7FEF0EF0112210C0DEFF11C069
:101BC000DDFF1200160E616E0F019F0E5B6F7B0E24
:101BD000606E1200DF50106E116A0C0E105C000E69
:101BE00011581200F7220900F5CF75F00A00F5CF61
:101BF00076F01200FE0EDBCFE6FF8EDEE552E552F8
:101C00001200010EE66EE66A000EE66EE66A12004B
:101C1000D950020FE96EDACFEAFFEF501200F76AEF
:101C20007525F66E7651F722080012003251F66ED5
:101C3000F76AD890F636F736120065C0E9FF66C03D
:101C4000EAFF1200040DF3CF10F0F4CF11F0000EF4
:101C50001026020EB1DF840E93EF0EF05FD8300E27
:101C6000EE6E020EED6E120032DF020EE126120061
:101C7000020EE66EE66ADECFE6FFDDCFE6FF050E7A
:101C800059EF0DF00DDF8C0EEF6E1CDF840EEF6E42
:101C9000120026DF670EE926000E120021DF6D0E0E
:101CA000E926000E120009DFEF50800B1200FCDE67
:101CB000B5EF0DF0E66E44EC17F0106E050EE15E28
:101CC0001050120004DFE6521200FE0BEA36E96EF5
:101CD0006D0EE926000E1200FE0BEA36E96E670E65
:101CE000E926000E120043EC12F0106E060EE15EC3
:101CF00010501200EA6A8B0FE96E000E1200EA6AB9
:101D0000880FE96E000E1200D8DEE850EF161200C0
:101D100094DFEE52080EEF6E1DEF0EF0020EE92674
:0E1D2000000EEA221200C9DEE850EF12120097
:021D2E00DACF0A
:101D3000E4FFE2CFDAFFE9CFE4FFEACFE4FFF6CF3A
:101D4000E4FFF7CFE4FFF5CFE4FFF3CFE4FFF4CFF8
:101D5000E4FFFACFE4FF00EE00F0100EE80403E326
:101D6000EECFE4FFFBD700EE10F0080EE80403E32B
:101D7000EECFE4FFFBD7E652F250200B0EE0F2501C
:101D8000040B0BE0F294F40ED76E480ED66E0101F0
:101D90004D2B000E4E234F235023F250100B09E021
:101DA000F250020B06E00101F4EC12F0F292CBECDF
:101DB00012F0F050100B0AE0F050020B07E00101A6
:101DC0004081F4EC12F0F092E6DB8B8669EC08F0CF
:101DD000E55200EE17F0080EE80403E3E5CFEDFF4F
:101DE000FBD700EE0FF0100EE80403E3E5CFEDFFA4
:101DF000FBD7E5CFFAFFE5CFF4FFE5CFF3FFE5CF63
:101E0000F5FFE5CFF7FFE5CFF6FFE5CFEAFFE5CF3A
:101E1000E9FFE5CFDAFF1100D8CFE4FFE0CFE4FF20
:101E2000E46EDACFE4FFE652E552E5CFDAFFE550A3
:101E3000E5CFE0FFE5CFD8FF100004D83EEC0DF071
:101E400064DAFED70F0EC11202D816EF08F08FDB4E
:101E5000E65240D8DF6ADF50106E116A400E105C07
:101E6000000E115805E2DF50AEDBEF6ADF2AF3D730
:101E700001014D6B4E6B4F6B506B486B496B4A6B5E
:101E80004B6B406B416B426B436B4C6B446B456BD4
:101E9000466B476BF00E8B1694168B827E6A94808D
:101EA0009484F19CF288F198F088F292F092810E7D
:101EB000D56EF294F40ED76E480ED66EF28AF28E7C
:101EC000696B6A6B6B6B6C6BED6BEE6BF06BF16B54
:101ED000E55252D34CDBE6527F6A938A939E240EDE
:101EE000AC6E900EAB6E710EAF6E020EB06E080E41
:101EF000B86EAE50DF6EE5523FD339DBFE0EDB50DD
:101F0000AD6E3AD334DB040EE126D880000E020118
:101F10004055C20E4155010E4255000E435532E365
:101F200040C2C8F241C2C9F242C2CAF243C2CBF2B5
:101F3000146A1B0E156EB70E166E176A14C004F0E5
:101F400015C005F0066E17C007F0C8C209F0C9C277
:101F50000AF0CAC20BF0CBC20CF08DEC17F004C033
:101F600010F005C011F006C012F007C013F0100603
:101F7000000E115A125A135A43DBDF50AF6E010E96
:101F8000DB50B06E040EE15C02E2E16AE552E16E04
:101F9000F3D2EDDAE652ABA205D0AB98AE50DF6ECD
:101FA000AB8802D0AE50DF6EDF50E552E5D2DFDA0B
:101FB000040EE12610681168010E126E136A2CDB04
:101FC00008DB1EDBDDDA040EE15C02E2E16AE552C9
:101FD000E16ED2D2CCDA050EE126106AF00E116E57
:101FE0001268030E136E18DB110EF3DAE806FDE13A
:101FF0008EDA010E1016116A126A136A105011104F
:102000001210131005E01DDBEE52010EEE1603D088
:1020100018DBEE52EE6AEE6AEE6AB2DA050EE15CA9
:1020200002E2E16AE552E16EA7D2A1DAE652DF6A86
:10203000DFCF10F0FC0EDB50E76E1018E8AE02D0D8
:10204000E73402D0E750105C1CE2DFCF10F0116AD9
:1020500010BE1168FD0EDB501024E96EFE0EDB5041
:102060001120EA6EEF50E66E0101EE51EE2BEA6AA6
:10207000AD0FE96E010EEA22E552E750EF6EDF2A5E
:10208000D7D7E55279D273DA080EE126D950010F7D
:10209000E96EDACFEAFF300EEE6E780EEE6EEE6A83
:1020A000040EDB6A070EDB6A0101EE6B4C513EE069
:1020B000480EE96E010EEA6EEE504D5D106EEE5068
:1020C0004E59116EEE504F59126EEE505059136E1C
:1020D000D880320E1054000E1154000E1254000E0F
:1020E000135424E2190EE76E4C19E8AE02D04C35B9
:1020F00003D0E750D8804C5513E240C144F141C1B0
:1021000045F142C146F143C147F1010E1F0B08E002
:102110000101D8904733463345334433E806F9E1AB
:102120000101406B416B426B436B4C6B4451451159
:102130004611471101E1E2D08B965DDAE9BEEA680B
:1021400011DA770E08DAE9BEEA680CDA200E03DA53
:10215000E9BEEA6807DA300EFED9E9BEEA6802DABB
:10216000780EEF6E070EDB2A1FDA21DF65DA04C076
:1021700051F105C052F106C053F107C054F114DA11
:1021800029DF5ADA04C055F105C056F106C057F1EF
:1021900007C058F1DF6ADFCF10F0100EE76E10189D
:1021A000E8AE02D0E73402D0E750105C0CE2DFCF9B
:1021B000E9FFEA6AE9BEEA68590EE926010EEA2259
:1021C000EF6ADF2AE8D7060EDF6EDFCF10F0FF0ED2
:1021D000E76E1018E8AE02D0103403D0E750D88074
:1021E00010543FE2040EDF02F3501F0B44C110F005
:1021F00045C111F046C112F047C113F003E0E9D91F
:10220000E806FDE10F0E1016116A126A136A040E39
:1022100010C0DBFFDBCF10F0090EE76E1018E8AE40
:1022200002D0103403D0E750D880105404E3040ED9
:10223000DB50300F03D0040EDB50370FE76E040E77
:10224000E7CFDBFF070EDBCFF3FFDB2AF350E96EAE
:10225000EA6AE9BEEA6886D9040EDBCFEFFFDF0643
:10226000B4D7C9D9E9BEEA687DD9200E74D9E9BED0
:10227000EA6878D95B0EB3D955C1E6FF56C1E6FFCF
:1022800021EC15F0D9D999D910BE11684BD9DBCF03
:10229000E9FFEA6AE9BEEA6865D95D0E5CD9E9BE84
:1022A000EA6860D9200E9BD951C1E6FF52C1E6FF12
:1022B00053C1E6FF54C1E6FFBBEC15F0106E060EED
:1022C000E15E10507AD910BE11682CD90001010EC0
:1022D000B76F0101EF6B8FD9E9BEEA6843D90D0EE4
:1022E0003AD9E9BEEA683ED90A0EEF6E070EDB2A3C
:1022F000DBCFEEF1446B456B466B476B080EE15C40
:1023000002E2E16AE552E16E37D1BDDE200E000146
:10231000E76E6019E8AE02D0E73402D0E750605DA6
:1023200045E36450020B01E012000001B75115E0D3
:10233000AC50020B12E00101EF51EA6AAD0FE96EF9
:10234000010EEA22EF50E66ED8DDE5520101EF2BD7
:10235000EE51EF5D02E10001B76B9E50200B10E0E3
:102360003F0E0101ED5D0CE214DEE66E0101ED5160
:102370002AD9E552E750EF6EED2BED5124D9EF6AE3
:102380000001955111E10101ED5100080DE2EDC18F
:10239000E6FF6D0EE66E010EE66EFAEC13F0E55206
:1023A000E552E5520101ED6B4BEC14F01200000117
:1023B000B851B91104E1100EB86F270EB96FB80704
:1023C000000EB95B64A207D0B851B9112EE18B7031
:1023D0008BB013D027D00001605102E18B9022D046
:1023E000600502E18B8009D0020E605D02E18B8006
:1023F00019D0040E605D03E18B908B821200100EE9
:10240000605D06E10001B851B9110FE18B700AD08F
:10241000200E605D0AE10001B851B91106E18B7030
:102420008BA002D08B9212008B821200120012003D
:10243000120012002BEF13F012007BEF13F00001DB
:10244000830520E1000184051DE1A094F0DF649282
:102450000001846B0101100EF26F0E0EF36FF20794
:10246000000EF35BF251F311FAE16484080EF26F8F
:10247000070EF36FF207000EF35BF251F311FAE16E
:102480006494A084120073D8FD0EDBCF06F0FE0E1C
:10249000DBCF07F0050E061801E1075036E0E868CB
:1024A000061802E17F0E07182FE0030E061801E15F
:1024B000075028E0020E061801E1075021E0010E46
:1024C000061801E107501AE0740E061801E10750E2
:1024D00013E0750E061801E107500CE0730E0618A4
:1024E00001E1075005E0720E06180FE107500DD00C
:1024F0009FDF0BD09BDF09D09ADF07D09EDF05D08E
:102500009BDF03D097DF01D094DF010E35D078D860
:1025100098D8EECF10F0EECF11F0EECF12F0EFCF53
:1025200013F01200AD0E1026010E112210C0E6FFAE
:1025300011C0E6FF5EEC17F07FD888D87FEC17F06B
:10254000E552E552070EDBCFE7FFF350E726070E13
:10255000E7CFDBFF1200EF6E070EDB2ADBCFE9FFD0
:10256000EA6A1200AD0EE926010EEA221200D9CF66
:10257000E6FFE1CFD9FF1200E552E7CFD9FF120005
:10258000DECF04F0DECF05F0DECF06F0DDCF07F0C2
:10259000DD52DD5212004DC148F14EC149F14FC12B
:1025A0004AF150C14BF1120044C1E6FF45C1E6FFBC
:1025B00046C1E6FF47C1E6FF120048D8070EDBCF51
:1025C00010F0116A1200EA6A6D0FE96E010EEA223C
:1025D0001200D89013321232113210321200EF6E04
:1025E000070EDB2A26EF13F04C2BD89040374137EB
:1025F000423743371200070EDBCFE9FFEA6A1200C9
:1026000010C0DFFF010E11C0DBFF020E12C0DBFFA6
:10261000030E13C0DBFF1200D950FB0FE96EFF0E53
:10262000DA20EA6EEE501016EE501116EE50121629
:10263000EE50131687EF12F0E552E552E552E552DF
:102640001200D9CFE9FFDACFEAFF1200590EE66E89
:06265000010EE66E12000F
:0A265600020130511F0B010801E0E2
:1026600012003051600BE842E842E842E842E8429A
:10267000010801E01200345103E0340501E01200CA
:102680003151220A33E0030A26E0010A15E0210A4B
:102690000DE0010A01E012000001A50E756F000EA9
:1026A000766F080E786F796B778123D00001A50EC5
:1026B000756F000E766F1DD036C27DF037C27EF08A
:1026C0000001400E7A6F020E7B6F040E7F6F1F0EAB
:1026D000806F7C8F12000001C80E756F020E766F3E
:1026E000070E786F796BC10E776F120032C2A0F0BF
:1026F0000001778F12000201C86B4B0EC96FCA6BC5
:10270000CB6BCC6BCD6B080ECE6F0001946B1A0EA9
:10271000E66E010EE66EB9EC0CF0E552E5521E0EC7
:10272000E66E020EE66EB9EC0CF0E552E55224D9E5
:1027300000019E6B9F6B956B120049D97BD9050EEA
:10274000061801E1075002E0000E14D050D9000134
:102750009C51101804E19D51111801E10DD947D980
:1027600000019E51101805E19F51111802E1956B6F
:102770009A6B010E31D12BD90001946B9C519D11A4
:1027800002E1000E05D041D9EF50800B01E0010EAF
:1027900000092DE1FC0EDBCF10F037D9EE52EF50DF
:1027A000D880105405E231D9EE52FC0EEFCFDBFF9A
:1027B000946BFC0EDB50945D19E29451EA6A480F69
:1027C000E96E020EEA22EF50E66E9451E76EFD0EBE
:1027D000DBCFE9FFFE0EDBCFEAFFE750E926000E74
:1027E000EA22E552E750EF6E942BE3D7C5D80001FB
:1027F0009451F2D0ECD8A0940001955107E1F0D8A3
:10280000FC0EDBCF9AF0010E9B6F956FA084E4D095
:102810000AD917E1C6D8F2D802E111500BE0010E37
:10282000DBCFE9FFDB2A020EDBCFEAFF01E3DB2A85
:10283000EF50F1E1D5D8DFCF9AF00001010E9B6F88
:10284000956FA084030EE15C02E2E16AE552E16E5D
:10285000C3D0E9D818E1A5D8D1D802E111500CE0D5
:10286000010EDBCFF6FFDB2A020EDBCFF7FF01E321
:10287000DB2A0800F550F0E1B3D8DFCF9AF0000171
:102880009B6B010E956FA084030EE15C02E2E16A8E
:10289000E552E16EA1D09BD8020EE126A094000182
:1028A0009E519F1102E1000E08D09EC0E9FF9FC01B
:1028B000EAFFEF50800B01E0010E000906E1030E74
:1028C000955D01E1956B955102E1A0844ED0020E19
:1028D000955D09E1E66A000EE66EE66A5AD80001E7
:1028E000030E956F41D095053FE1400E106E116AC1
:1028F0009A51105C000E115803E2400EDF6E02D0B8
:102900009AC0DFFFDF509A5D9A6F880E986F020EB3
:10291000996F010EDFCFDBFF9B510BE1010EDB5006
:1029200012E096C0F6FF97C0F7FF0800F55042D8B6
:10293000F5D7010EDB5007E096C0E9FF97C0EAFF2C
:10294000EF5038D8F6D700019A5107E1400EDF5C0E
:1029500002E1020E01D0030E956FDFCFE6FF880E75
:10296000E66E020EE66E15D8A084020EE15C02E26D
:10297000E16AE552E16E30D0400EE66E480EE66E3A
:10298000020EE66EE66A46D8F3CF9CF0F4CF9DF0D7
:102990001200010EE66E3ED8F3CF9EF0F4CF9FF00A
:1029A0001200DF6A47D8DE5206C0DEFF07C0DDFF37
:1029B000DD52120098C0E9FF99C0EAFFEF6E982B34
:1029C000000E9923962B9723010EDB061200D9CF18
:1029D000E6FFE1CFD9FF1200E552E7CFD9FF1200A1
:1029E000FD0EDBCF96F0FE0EDBCF97F01200FB0E54
:1029F000DBCF10F0FC0EDBCF11F01200DF2ADF502E
:102A0000106E116AFF0E101812009CC0E9FF9DC0E5
:102A1000EAFF1200020EE66EE9EC0CF0106E050EF5
:102A2000E15E10501200D3DF030EE126A0940001F6
:102A300095511200FD0EDBCF06F0FE0EDBCF07F046
:022A4000120082
:0E2A4200D9CFE6FFDACFE6FFFA0EE3CFD9FFD9
:102A5000FB0EE3CFDAFFFD0EE35209E72D0EDE6E2B
:102A6000FC0EE31EE32AFD0ED8B4E306E31EE65295
:102A7000E652E652FD0EE124E76EFF0EE220E46E20
:102A8000E652F70EE3CFE6FFF70EE3CFE6FF91EC59
:102A900015F0F90EE124E96EFF0EE220EA6E81ECFA
:102AA00015F00AE17EEC15F009E181EC15F008E182
:102AB0007EEC15F007E108D08CEC15F087EC15F0F2
:102AC0008CEC15F087EC15F08CEC15F0DE6AF90E45
:102AD000E126FF0EE222FF0EE3CFDAFFE552FF0E02
:102AE000E3CFD9FFE552FC0EE124E96EFF0EE220B0
:102AF000EA6EEECFF3FFEFCFF4FF1200EF380F0BCB
:102B00001200EF500F0B02E1EE52D8841200EF38A2
:102B10000F0B300FDE6E1200EE500F0B300FDE6E1B
:102B20001200FC0EE3CFE9FFFD0EE3CFEAFF100E2B
:102B3000E66EEE6AEE6AEF6AD890FD0EE336FE0EA0
:102B4000E336ED36ED36EF36FF0EE30609E0B2EC84
:102B500015F0EE52B2EC15F0EE52B2EC15F0EDD7E6
:102B6000E56E1200030EEF24E8B6EF6E300EEF2490
:102B7000E8BEEF6E000CD9CFE6FFDACFE6FFF80E25
:102B8000E3CFD9FFF90EE3CFDAFFFD0EE35215E7ED
:102B90002D0EDE6EFA0EE31EFB0EE31EFC0EE31E90
:102BA000FD0EE31EFA0EE32A08E1FB0EE32A05E11F
:102BB000FC0EE32A02E1FD0EE32AE652E652E6525B
:102BC000E652E652FB0EE124E76EFF0EE220E46ED1
:102BD000E652F30EE3CFE6FFF30EE3CFE6FFF30E8C
:102BE000E3CFE6FFF30EE3CFE6FF58EC16F0F50E69
:102BF000E124E96EFF0EE220EA6E45EC16F019E1E1
:102C000048EC16F018E145EC16F017E148EC16F028
:102C100016E145EC16F015E148EC16F014E145EC30
:102C200016F013E148EC16F012E145EC16F011E154
:102C300012D04EEC16F053EC16F04EEC16F053ECAE
:102C400016F04EEC16F053EC16F04EEC16F053EC7A
:102C500016F04EEC16F053EC16F0DE6AF50EE12697
:102C6000FF0EE222FF0EE3CFDAFFE552FF0EE3CFC5
:102C7000D9FFE552FA0EE124E96EFF0EE220EA6E7A
:102C8000EECFF3FFEFCFF4FF1200EF380F0B12007F
:102C9000EF500F0B02E1EE52D8841200EF380F0B09
:102CA000300FDE6E1200EE500F0B300FDE6E120092
:102CB000FA0EE3CFE9FFFB0EE3CFEAFF200EE66E4C
:102CC000EE6AEE6AEE6AEE6AEF6AD890FB0EE336C1
:102CD000FC0EE336FD0EE336FE0EE336ED36ED3642
:102CE000ED36ED36EF36FF0EE3060FE087EC16F01B
:102CF000EE5287EC16F0EE5287EC16F0EE5287ECAF
:102D000016F0EE5287EC16F0E1D7E56E1200030ED6
:102D1000EF24E8B6EF6E300EEF24E8BEEF6E000C45
:102D20001201000202000008D8040A00000101029A
:102D3000000109024300020100C032090400000141
:102D400002020100052400100104240202052406E9
:102D500000010524010001070581030800020904A0
:102D60000100020A000000070502024000000705FA
:102D700082024000000403090434034D006900632B
:102D80000072006F0063006800690070002000544A
:102D9000006500630068006E006F006C006F0067E4
:102DA000007900200049006E0063002E00340343C8
:102DB00000440043002000520053002D0032003335
:102DC000003200200045006D0075006C0061007449
:102DD0000069006F006E002000440065006D006F08
:092DE00000322D752D792DAD2D69
:062DEA001E0EF66E100E35
:102DF000F76E000EF86E00010900F550B26F090081
:102E0000F550B36F03E1B26701D03DD00900F55032
:102E1000AD6F0900F550AE6F0900F550AF6F0900B6
:102E20000900F550E96E0900F550EA6E0900090045
:102E30000900F550B06F0900F550B16F09000900A5
:102E4000F6CFB4F0F7CFB5F0F8CFB6F0ADC0F6FFDF
:102E5000AEC0F7FFAFC0F8FF0001B05302E1B153BD
:102E600007E00900F550EE6EB007F8E2B107F9D7B8
:102E7000B4C0F6FFB5C0F7FFB6C0F8FF0001B20757
:082E8000000EB35BBFD7120086
:082E8800FE0EE3CFE9FFFF0E8F
:102E9000E3CFEAFFE9CFF3FFEACFF4FFFB0EE35005
:102EA00003E1FC0EE35009E0FB0EE30602E2FC0E38
:102EB000E306FD0EE350EE6EF1D71200D9CFE6FF28
:102EC000DACFE6FFFA0EE3CFD9FFFB0EE3CFDAFF4E
:102ED000FC0EE3CFE9FFFD0EE3CFEAFFE9CFF3FFFE
:102EE000EACFF4FFDECFEFFFEE66FCD7FF0EE3CFB5
:102EF000DAFFE552FF0EE3CFD9FFE5521200FE0ED6
:102F0000E3CFE9FFFF0EE3CFEAFFF36AF46AEE5284
:0A2F100003E0F34AF42AFBD7120095
:062F1A00036A026A016A6D
:102F2000006A200EE76ED89004360536063607365E
:102F300000360136023603360950005C0A5001584B
:102F40000B5002580C50035809E30950005E0A5018
:102F5000015A0B50025A0C50035A042AE72EE4D7A8
:022F600012005D
:0E2F6200000EF36E00EE00F0030E01D8120018
:102F7000EA6002D0EE6AFCD7F350E9601200EE6A14
:022F8000FCD77C
:0E2F820011EE00F021EE00F0F86A0F9CF5EC65
:0E2F900016F003EC08F01DEC0FF0FBD712005A
:020000040030CA
:0100000000FF
:0100010032CC
:0100020021DC
:010003001EDE
:0100050000FA
:010006008178
:0100080003F4
:01000900C036
:01000A0003F2
:01000B00E014
:01000C0003F0
:01000D0040B2
:00000001FF
